{"abi":[{"type":"constructor","inputs":[{"name":"_depositVerifier","type":"address","internalType":"address"},{"name":"_withdrawVerifier","type":"address","internalType":"address"}],"stateMutability":"nonpayable"},{"type":"function","name":"binaryIMTData","inputs":[],"outputs":[{"name":"depth","type":"uint256","internalType":"uint256"},{"name":"root","type":"uint256","internalType":"uint256"},{"name":"numberOfLeaves","type":"uint256","internalType":"uint256"},{"name":"useDefaultZeroes","type":"bool","internalType":"bool"}],"stateMutability":"view"},{"type":"function","name":"createProof","inputs":[{"name":"leafIndex","type":"uint256","internalType":"uint256"}],"outputs":[{"name":"proofSiblings","type":"uint256[]","internalType":"uint256[]"},{"name":"proofPathIndices","type":"uint8[]","internalType":"uint8[]"}],"stateMutability":"view"},{"type":"function","name":"deposit","inputs":[{"name":"proof","type":"bytes","internalType":"bytes"},{"name":"publicInputs","type":"bytes32[]","internalType":"bytes32[]"}],"outputs":[{"name":"leafIndex","type":"uint256","internalType":"uint256"}],"stateMutability":"payable"},{"type":"function","name":"generateLeaf","inputs":[{"name":"secret","type":"uint256","internalType":"uint256"},{"name":"nullifier","type":"uint256","internalType":"uint256"},{"name":"asset","type":"uint256","internalType":"uint256"},{"name":"liquidity","type":"uint256","internalType":"uint256"},{"name":"depositTimestamp","type":"uint256","internalType":"uint256"}],"outputs":[{"name":"","type":"uint256","internalType":"uint256"}],"stateMutability":"pure"},{"type":"function","name":"hash1","inputs":[{"name":"x","type":"uint256","internalType":"uint256"}],"outputs":[{"name":"","type":"uint256","internalType":"uint256"}],"stateMutability":"pure"},{"type":"function","name":"hash2","inputs":[{"name":"x","type":"uint256","internalType":"uint256"},{"name":"y","type":"uint256","internalType":"uint256"}],"outputs":[{"name":"","type":"uint256","internalType":"uint256"}],"stateMutability":"pure"},{"type":"function","name":"insert","inputs":[{"name":"leaf","type":"uint256","internalType":"uint256"}],"outputs":[],"stateMutability":"nonpayable"},{"type":"function","name":"lastSubtrees","inputs":[{"name":"index","type":"uint256","internalType":"uint256"}],"outputs":[{"name":"","type":"uint256[2]","internalType":"uint256[2]"}],"stateMutability":"view"},{"type":"function","name":"leafCount","inputs":[],"outputs":[{"name":"","type":"uint256","internalType":"uint256"}],"stateMutability":"view"},{"type":"function","name":"nextRootIndex","inputs":[],"outputs":[{"name":"","type":"uint8","internalType":"uint8"}],"stateMutability":"view"},{"type":"function","name":"nullifier_hashes","inputs":[{"name":"","type":"uint256","internalType":"uint256"}],"outputs":[{"name":"","type":"bool","internalType":"bool"}],"stateMutability":"view"},{"type":"function","name":"roots","inputs":[{"name":"","type":"uint256","internalType":"uint256"}],"outputs":[{"name":"","type":"uint256","internalType":"uint256"}],"stateMutability":"view"},{"type":"function","name":"verify","inputs":[{"name":"leaf","type":"uint256","internalType":"uint256"},{"name":"proofSiblings","type":"uint256[]","internalType":"uint256[]"},{"name":"proofPathIndices","type":"uint8[]","internalType":"uint8[]"}],"outputs":[{"name":"","type":"bool","internalType":"bool"}],"stateMutability":"view"},{"type":"function","name":"withdraw","inputs":[{"name":"proof","type":"bytes","internalType":"bytes"},{"name":"publicInputs","type":"bytes32[]","internalType":"bytes32[]"}],"outputs":[],"stateMutability":"nonpayable"},{"type":"error","name":"DepthNotSupported","inputs":[]},{"type":"error","name":"LeafIndexOutOfRange","inputs":[]},{"type":"error","name":"TreeIsFull","inputs":[]},{"type":"error","name":"ValueGreaterThanSnarkScalarField","inputs":[]},{"type":"error","name":"WrongDefaultZeroIndex","inputs":[]},{"type":"error","name":"WrongMerkleProofPath","inputs":[]}],"bytecode":{"object":"0x608060405234801562000010575f80fd5b5060405162002477380380620024778339810160408190526200003391620001ca565b62000042600160205f62000074565b600780546001600160a01b039384166001600160a01b031991821617909155600880549290931691161790556200024a565b7f30644e72e131a029b85045b68181585d2833e84879b9709143e1f593f00000018110620000b55760405163461b9c6d60e11b815260040160405180910390fd5b811580620000c35750602082115b15620000e25760405163362b442760e21b815260040160405180910390fd5b8183555f5b828160ff161015620001a15760ff81165f908152600385016020908152604091829020849055815180830183528481529081018490529051632b0aac7f60e11b815273__$2504d81e148ed52e54ab9b5ee76910cf06$__9163561558fe9162000154919060040162000200565b602060405180830381865af415801562000170573d5f803e3d5ffd5b505050506040513d601f19601f8201168201806040525081019062000196919062000232565b9150600101620000e7565b5060019092019190915550565b80516001600160a01b0381168114620001c5575f80fd5b919050565b5f8060408385031215620001dc575f80fd5b620001e783620001ae565b9150620001f760208401620001ae565b90509250929050565b6040810181835f5b60028110156200022957815183526020928301929091019060010162000208565b50505092915050565b5f6020828403121562000243575f80fd5b5051919050565b61221f80620002585f395ff3fe6080604052600436106100d9575f3560e01c806390b5561d1161007c578063d95a73dc11610057578063d95a73dc14610265578063e2038e7f14610290578063e4387ec3146102af578063f527081e146102dc575f80fd5b806390b5561d146101e05780639f9a6228146101ff578063c2b40ae414610246575f80fd5b8063511c53ff116100b7578063511c53ff1461015557806367843a5b146101745780636a624a05146101955780636fc97643146101b4575f80fd5b80631338df64146100dd57806330e69fc314610103578063433fc8d114610117575b5f80fd5b6100f06100eb366004611c4f565b6102fb565b6040519081526020015b60405180910390f35b34801561010e575f80fd5b506100f05f5481565b348015610122575f80fd5b50610145610131366004611d00565b60096020525f908152604090205460ff1681565b60405190151581526020016100fa565b348015610160575f80fd5b506100f061016f366004611d17565b610604565b34801561017f575f80fd5b5061019361018e366004611c4f565b610697565b005b3480156101a0575f80fd5b506100f06101af366004611d37565b6109e5565b3480156101bf575f80fd5b506101d36101ce366004611d00565b610c26565b6040516100fa9190611d6e565b3480156101eb575f80fd5b506101936101fa366004611d00565b610c6c565b34801561020a575f80fd5b506001546002546003546006546102249392919060ff1684565b60408051948552602085019390935291830152151560608201526080016100fa565b348015610251575f80fd5b506100f0610260366004611d00565b610c8e565b348015610270575f80fd5b50602a5461027e9060ff1681565b60405160ff90911681526020016100fa565b34801561029b575f80fd5b506101456102aa366004611ddf565b610ca4565b3480156102ba575f80fd5b506102ce6102c9366004611d00565b610cbe565b6040516100fa929190611e53565b3480156102e7575f80fd5b506100f06102f6366004611d00565b610cd5565b5f80825f8151811061030f5761030f611ecf565b60200260200101515f1c90505f8360018151811061032f5761032f611ecf565b60200260200101515f1c90505f8460028151811061034f5761034f611ecf565b60200260200101515f1c90505f8560038151811061036f5761036f611ecf565b602090810291909101015190506001600160a01b038416156103d15760405162461bcd60e51b81526020600482015260166024820152756f6e6c792045544820737570706f727465642061746d60501b60448201526064015b60405180910390fd5b8234146104115760405162461bcd60e51b815260206004820152600e60248201526d1a5b9d985b1a5908185b5bdd5b9d60921b60448201526064016103c8565b6104416040518060400160405280600e81526020016d20b9b9b2ba1030b2323932b9b99d60911b81525085610d61565b61046d6040518060400160405280600a8152602001692634b8bab4b234ba3c9d60b11b81525084610daa565b6104996040518060400160405280600a8152602001692a34b6b2b9ba30b6b81d60b11b81525083610daa565b6104c0604051806040016040528060058152602001642632b0b31d60d91b81525082610daa565b81421061051b5760405162461bcd60e51b8152602060048201526024808201527f6465706f7369742074696d657374616d70203e3d20626c6f636b2e74696d6573604482015263074616d760e41b60648201526084016103c8565b600754604051633a94343960e21b81526001600160a01b039091169063ea50d0e49061054d908a908a90600401611f26565b602060405180830381865afa158015610568573d5f803e3d5ffd5b505050506040513d601f19601f8201168201806040525081019061058c9190611f6e565b5061059681610c6c565b600254602a548190600a9060ff16602081106105b4576105b4611ecf565b0155602a546020906105ca9060ff166001611fa1565b6105d49190611fba565b602a805460ff191660ff929092169190911790555f546105f690600190611fe7565b955050505050505b92915050565b604080518082018252838152602081018390529051632b0aac7f60e11b81525f919073__$2504d81e148ed52e54ab9b5ee76910cf06$__9063561558fe90610650908490600401611d6e565b602060405180830381865af415801561066b573d5f803e3d5ffd5b505050506040513d601f19601f8201168201806040525081019061068f9190611ffa565b949350505050565b5f815f815181106106aa576106aa611ecf565b60200260200101515f1c90505f826001815181106106ca576106ca611ecf565b60200260200101515f1c90505f836002815181106106ea576106ea611ecf565b60200260200101515f1c90505f8460038151811061070a5761070a611ecf565b60200260200101515f1c90505f8560048151811061072a5761072a611ecf565b60200260200101515f1c90505f8660058151811061074a5761074a611ecf565b60200260200101515f1c905061075f85610def565b61076842610def565b8442116107a55760405162461bcd60e51b815260206004820152600b60248201526a1c1b19585cd9481dd85a5d60aa1b60448201526064016103c8565b6001600160a01b038416156107f55760405162461bcd60e51b81526020600482015260166024820152756f6e6c792045544820737570706f727465642061746d60501b60448201526064016103c8565b5f8181526009602052604090205460ff16156108475760405162461bcd60e51b81526020600482015260116024820152701a185cda08185b1c9958591e481d5cd959607a1b60448201526064016103c8565b5f805b60208160ff1610156108855783600a8260ff166020811061086d5761086d611ecf565b01540361087d5760019150610885565b60010161084a565b50806108c25760405162461bcd60e51b815260206004820152600c60248201526b125b9d985b1a59081c9bdbdd60a21b60448201526064016103c8565b600854604051633a94343960e21b81526001600160a01b039091169063ea50d0e4906108f4908c908c90600401611f26565b602060405180830381865afa15801561090f573d5f803e3d5ffd5b505050506040513d601f19601f820116820180604052508101906109339190611f6e565b505f82815260096020526040808220805460ff19166001179055516001600160a01b0389169086908381818185875af1925050503d805f8114610991576040519150601f19603f3d011682016040523d82523d5f602084013e610996565b606091505b50509050806109d95760405162461bcd60e51b815260206004820152600f60248201526e151c985b9cd9995c8819985a5b1959608a1b60448201526064016103c8565b50505050505050505050565b5f8073__$2504d81e148ed52e54ab9b5ee76910cf06$__63561558fe60405180604001604052808a8152602001898152506040518263ffffffff1660e01b8152600401610a329190611d6e565b602060405180830381865af4158015610a4d573d5f803e3d5ffd5b505050506040513d601f19601f82011682018060405250810190610a719190611ffa565b90505f73__$2504d81e148ed52e54ab9b5ee76910cf06$__63561558fe6040518060400160405280898152602001888152506040518263ffffffff1660e01b8152600401610abf9190611d6e565b602060405180830381865af4158015610ada573d5f803e3d5ffd5b505050506040513d601f19601f82011682018060405250810190610afe9190611ffa565b90505f73__$2504d81e148ed52e54ab9b5ee76910cf06$__63561558fe6040518060400160405280868152602001858152506040518263ffffffff1660e01b8152600401610b4c9190611d6e565b602060405180830381865af4158015610b67573d5f803e3d5ffd5b505050506040513d601f19601f82011682018060405250810190610b8b9190611ffa565b90505f73__$2504d81e148ed52e54ab9b5ee76910cf06$__63561558fe6040518060400160405280858152602001898152506040518263ffffffff1660e01b8152600401610bd99190611d6e565b602060405180830381865af4158015610bf4573d5f803e3d5ffd5b505050506040513d601f19601f82011682018060405250810190610c189190611ffa565b9a9950505050505050505050565b610c2e611b1d565b5f82815260056020526040908190208151808301928390529160029082845b815481526020019060010190808311610c4d5750505050509050919050565b610c77600182610e37565b505f80549080610c8683612011565b919050555050565b600a8160208110610c9d575f80fd5b0154905081565b5f610cb46001878787878761100c565b9695505050505050565b606080610ccc60018461130f565b91509150915091565b604080516020810182528281529051639d036e7160e01b81525f919073__$1b2e097ff5b51b76e5556cd2f5e5f1a766$__90639d036e7190610d1b908490600401612029565b602060405180830381865af4158015610d36573d5f803e3d5ffd5b505050506040513d601f19601f82011682018060405250810190610d5a9190611ffa565b9392505050565b610da68282604051602401610d7792919061205a565b60408051601f198184030181529190526020810180516001600160e01b031663319af33360e01b1790526114ed565b5050565b610da68282604051602401610dc0929190612083565b60408051601f198184030181529190526020810180516001600160e01b0316632d839cb360e21b1790526114ed565b610e3481604051602401610e0591815260200190565b60408051601f198184030181529190526020810180516001600160e01b031663f82c50f160e01b1790526114ed565b50565b81545f907f30644e72e131a029b85045b68181585d2833e84879b9709143e1f593f00000018310610e7b5760405163461b9c6d60e11b815260040160405180910390fd5b610e86816002612184565b846002015410610ea957604051633b5ccb4360e21b815260040160405180910390fd5b60028401546005850154849060ff165f5b848160ff161015610fe057836001165f03610f3057604051806040016040528084815260200183610efe5760ff83165f90815260038b016020526040902054610f0a565b610f0a8360ff166114f6565b905260ff82165f90815260048a0160205260409020610f2a916002611b3b565b50610f4a565b60ff81165f90815260048901602052604090208390600101555b60ff81165f9081526004808a016020526040918290209151632b0aac7f60e11b815273__$2504d81e148ed52e54ab9b5ee76910cf06$__9263561558fe92610f92920161218f565b602060405180830381865af4158015610fad573d5f803e3d5ffd5b505050506040513d601f19601f82011682018060405250810190610fd19190611ffa565b600194851c9490935001610eba565b5060018088018390556002880180545f90610ffc9084906121b6565b9091555091979650505050505050565b85545f907f30644e72e131a029b85045b68181585d2833e84879b9709143e1f593f000000187106110505760405163461b9c6d60e11b815260040160405180910390fd5b828114158061105f5750848114155b1561107d5760405163776891e360e01b815260040160405180910390fd5b865f5b828160ff1610156112fb577f30644e72e131a029b85045b68181585d2833e84879b9709143e1f593f000000188888360ff168181106110c1576110c1611ecf565b90506020020135106110e65760405163461b9c6d60e11b815260040160405180910390fd5b85858260ff168181106110fb576110fb611ecf565b905060200201602081019061111091906121c9565b60ff1660011415801561114e575085858260ff1681811061113357611133611ecf565b905060200201602081019061114891906121c9565b60ff1615155b1561116c5760405163776891e360e01b815260040160405180910390fd5b85858260ff1681811061118157611181611ecf565b905060200201602081019061119691906121c9565b60ff165f0361124b5773__$2504d81e148ed52e54ab9b5ee76910cf06$__63561558fe60405180604001604052808581526020018b8b8660ff168181106111df576111df611ecf565b905060200201358152506040518263ffffffff1660e01b81526004016112059190611d6e565b602060405180830381865af4158015611220573d5f803e3d5ffd5b505050506040513d601f19601f820116820180604052508101906112449190611ffa565b91506112f3565b73__$2504d81e148ed52e54ab9b5ee76910cf06$__63561558fe60405180604001604052808b8b8660ff1681811061128557611285611ecf565b905060200201358152602001858152506040518263ffffffff1660e01b81526004016112b19190611d6e565b602060405180830381865af41580156112cc573d5f803e3d5ffd5b505050506040513d601f19601f820116820180604052508101906112f09190611ffa565b91505b600101611080565b506001890154149150509695505050505050565b815460028301546060918291841061133a57604051630231ec4360e31b815260040160405180910390fd5b8067ffffffffffffffff81111561135357611353611b8d565b60405190808252806020026020018201604052801561137c578160200160208202803683370190505b5092508067ffffffffffffffff81111561139857611398611b8d565b6040519080825280602002602001820160405280156113c1578160200160208202803683370190505b509150835f5b828160ff1610156114e2575f82600116905080858360ff16815181106113ef576113ef611ecf565b60ff928316602091820292909201015281165f036114a05760028801546114178460016121b6565b101561145a5760ff82165f908152600489016020526040902060010154868360ff168151811061144957611449611ecf565b6020026020010181815250506114d5565b600588015460ff1661147f5760ff82165f90815260038901602052604090205461148b565b61148b8260ff166114f6565b868360ff168151811061144957611449611ecf565b60ff82165f81815260048a01602052604090205487519091889181106114c8576114c8611ecf565b6020026020010181815250505b50600191821c91016113c7565b5050505b9250929050565b610e3481611afe565b5f815f0361150557505f919050565b8160010361153457507f2098f5fb9e239eab3ceac3f27b81e481dc3124d55ffed523a839ee8446b64864919050565b8160020361156357507f1069673dcdb12263df301a6ff584a7ec261a44cb9dc68df067a4774460b1f1e1919050565b8160030361159257507f18f43331537ee2af2e3d758d50f72106467c6eea50371dd528d57eb2b856d238919050565b816004036115c157507f07f9d837cb17b0d36320ffe93ba52345f1b728571a568265caac97559dbc952a919050565b816005036115f057507f2b94cf5e8746b3f5c9631f4c5df32907a699c58c94b2ad4d7b5cec1639183f55919050565b8160060361161f57507f2dee93c5a666459646ea7d22cca9e1bcfed71e6951b953611d11dda32ea09d78919050565b8160070361164e57507f078295e5a22b84e982cf601eb639597b8b0515a88cb5ac7fa8a4aabe3c87349d919050565b8160080361167d57507f2fa5e5f18f6027a6501bec864564472a616b2e274a41211a444cbe3a99f3cc61919050565b816009036116ac57507f0e884376d0d8fd21ecb780389e941f66e45e7acce3e228ab3e2156a614fcd747919050565b81600a036116db57507f1b7201da72494f1e28717ad1a52eb469f95892f957713533de6175e5da190af2919050565b81600b0361170a57507f1f8d8822725e36385200c0b201249819a6e6e1e4650808b5bebc6bface7d7636919050565b81600c0361173957507f2c5d82f66c914bafb9701589ba8cfcfb6162b0a12acf88a8d0879a0471b5f85a919050565b81600d0361176857507f14c54148a0940bb820957f5adf3fa1134ef5c4aaa113f4646458f270e0bfbfd0919050565b81600e0361179757507f190d33b12f986f961e10c0ee44d8b9af11be25588cad89d416118e4bf4ebe80c919050565b81600f036117c657507f22f98aa9ce704152ac17354914ad73ed1167ae6596af510aa5b3649325e06c92919050565b816010036117f557507f2a7c7c9b6ce5880b9f6f228d72bf6a575a526f29c66ecceef8b753d38bba7323919050565b8160110361182457507f2e8186e558698ec1c67af9c14d463ffc470043c9c2988b954d75dd643f36b992919050565b8160120361185357507f0f57c5571e9a4eab49e2c8cf050dae948aef6ead647392273546249d1c1ff10f919050565b8160130361188257507f1830ee67b5fb554ad5f63d4388800e1cfe78e310697d46e43c9ce36134f72cca919050565b816014036118b157507f2134e76ac5d21aab186c2be1dd8f84ee880a1e46eaf712f9d371b6df22191f3e919050565b816015036118e057507f19df90ec844ebc4ffeebd866f33859b0c051d8c958ee3aa88f8f8df3db91a5b1919050565b8160160361190f57507f18cca2a66b5c0787981e69aefd84852d74af0e93ef4912b4648c05f722efe52b919050565b8160170361193e57507f2388909415230d1b4d1304d2d54f473a628338f2efad83fadf05644549d2538d919050565b8160180361196d57507f27171fb4a97b6cc0e9e8f543b5294de866a2af2c9c8d0b1d96e673e4529ed540919050565b8160190361199c57507f2ff6650540f629fd5711a0bc74fc0d28dcb230b9392583e5f8d59696dde6ae21919050565b81601a036119cb57507f120c58f143d491e95902f7f5277778a2e0ad5168f6add75669932630ce611518919050565b81601b036119fa57507f1f21feb70d3f21b07bf853d5e5db03071ec495a0a565a21da2d665d279483795919050565b81601c03611a2957507f24be905fa71335e14c638cc0f66a8623a826e768068a9e968bb1a1dde18a72d2919050565b81601d03611a5857507f0f8666b62ed17491c50ceadead57d4cd597ef3821d65c328744c74e553dac26d919050565b81601e03611a8757507f0918d46bf52d98b034413f4a1a1c41594e7a7a3f6ae08cb43d1a2a230e1959ef919050565b81601f03611ab657507f1bbeb01b4c479ecde76917645e404dfa2e26f90d0afc5a65128513ad375c5ff2919050565b81602003611ae557507f2f68a1c58e257e42a17a6c61dff5551ed560b9922ab119d5ac8e184c9734ead9919050565b60405163d5968e4760e01b815260040160405180910390fd5b5f6a636f6e736f6c652e6c6f6790505f80835160208501845afa505050565b60405180604001604052806002906020820280368337509192915050565b8260028101928215611b69579160200282015b82811115611b69578251825591602001919060010190611b4e565b50611b75929150611b79565b5090565b5b80821115611b75575f8155600101611b7a565b634e487b7160e01b5f52604160045260245ffd5b604051601f8201601f1916810167ffffffffffffffff81118282101715611bca57611bca611b8d565b604052919050565b5f82601f830112611be1575f80fd5b8135602067ffffffffffffffff821115611bfd57611bfd611b8d565b8160051b611c0c828201611ba1565b9283528481018201928281019087851115611c25575f80fd5b83870192505b84831015611c4457823582529183019190830190611c2b565b979650505050505050565b5f8060408385031215611c60575f80fd5b823567ffffffffffffffff80821115611c77575f80fd5b818501915085601f830112611c8a575f80fd5b8135602082821115611c9e57611c9e611b8d565b611cb0601f8301601f19168201611ba1565b8281528882848701011115611cc3575f80fd5b82828601838301375f928101820192909252909450850135915080821115611ce9575f80fd5b50611cf685828601611bd2565b9150509250929050565b5f60208284031215611d10575f80fd5b5035919050565b5f8060408385031215611d28575f80fd5b50508035926020909101359150565b5f805f805f60a08688031215611d4b575f80fd5b505083359560208501359550604085013594606081013594506080013592509050565b6040810181835f5b6002811015611d95578151835260209283019290910190600101611d76565b50505092915050565b5f8083601f840112611dae575f80fd5b50813567ffffffffffffffff811115611dc5575f80fd5b6020830191508360208260051b85010111156114e6575f80fd5b5f805f805f60608688031215611df3575f80fd5b85359450602086013567ffffffffffffffff80821115611e11575f80fd5b611e1d89838a01611d9e565b90965094506040880135915080821115611e35575f80fd5b50611e4288828901611d9e565b969995985093965092949392505050565b604080825283519082018190525f906020906060840190828701845b82811015611e8b57815184529284019290840190600101611e6f565b505050838103828501528451808252858301918301905f5b81811015611ec257835160ff1683529284019291840191600101611ea3565b5090979650505050505050565b634e487b7160e01b5f52603260045260245ffd5b5f81518084525f5b81811015611f0757602081850181015186830182015201611eeb565b505f602082860101526020601f19601f83011685010191505092915050565b604081525f611f386040830185611ee3565b8281036020848101919091528451808352858201928201905f5b81811015611ec257845183529383019391830191600101611f52565b5f60208284031215611f7e575f80fd5b81518015158114610d5a575f80fd5b634e487b7160e01b5f52601160045260245ffd5b60ff81811683821601908111156105fe576105fe611f8d565b5f60ff831680611fd857634e487b7160e01b5f52601260045260245ffd5b8060ff84160691505092915050565b818103818111156105fe576105fe611f8d565b5f6020828403121561200a575f80fd5b5051919050565b5f6001820161202257612022611f8d565b5060010190565b60208181019082845f5b600181101561205057815183529183019190830190600101612033565b5050505092915050565b604081525f61206c6040830185611ee3565b905060018060a01b03831660208301529392505050565b604081525f6120956040830185611ee3565b90508260208301529392505050565b600181815b808511156120de57815f19048211156120c4576120c4611f8d565b808516156120d157918102915b93841c93908002906120a9565b509250929050565b5f826120f4575060016105fe565b8161210057505f6105fe565b816001811461211657600281146121205761213c565b60019150506105fe565b60ff84111561213157612131611f8d565b50506001821b6105fe565b5060208310610133831016604e8410600b841016171561215f575081810a6105fe565b61216983836120a4565b805f190482111561217c5761217c611f8d565b029392505050565b5f610d5a83836120e6565b6040810181835f5b6002811015611d95578154835260209092019160019182019101612197565b808201808211156105fe576105fe611f8d565b5f602082840312156121d9575f80fd5b813560ff81168114610d5a575f80fdfea2646970667358221220763f02e21c27851ae7138e57b1335a7131e1660b32169f5c342599bbfedd515864736f6c63430008180033","linkReferences":{"src/libraries/PoseidonT2.sol":{"PoseidonT2":[{"start":3915,"length":20}]},"src/libraries/PoseidonT3.sol":{"PoseidonT3":[{"start":299,"length":20},{"start":2176,"length":20},{"start":3137,"length":20},{"start":3278,"length":20},{"start":3419,"length":20},{"start":3560,"length":20},{"start":4550,"length":20},{"start":5113,"length":20},{"start":5285,"length":20}]}}},"methodIdentifiers":{"binaryIMTData()":"9f9a6228","createProof(uint256)":"e4387ec3","deposit(bytes,bytes32[])":"1338df64","generateLeaf(uint256,uint256,uint256,uint256,uint256)":"6a624a05","hash1(uint256)":"f527081e","hash2(uint256,uint256)":"511c53ff","insert(uint256)":"90b5561d","lastSubtrees(uint256)":"6fc97643","leafCount()":"30e69fc3","nextRootIndex()":"d95a73dc","nullifier_hashes(uint256)":"433fc8d1","roots(uint256)":"c2b40ae4","verify(uint256,uint256[],uint8[])":"e2038e7f","withdraw(bytes,bytes32[])":"67843a5b"},"id":28}